{
  "contractName": "RockPaperScissors",
  "abi": [
    {
      "inputs": [],
      "payable": false,
      "stateMutability": "nonpayable",
      "type": "constructor"
    },
    {
      "constant": true,
      "inputs": [],
      "name": "gameId",
      "outputs": [
        {
          "internalType": "uint256",
          "name": "",
          "type": "uint256"
        }
      ],
      "payable": false,
      "stateMutability": "view",
      "type": "function"
    },
    {
      "constant": true,
      "inputs": [
        {
          "internalType": "uint256",
          "name": "",
          "type": "uint256"
        }
      ],
      "name": "games",
      "outputs": [
        {
          "internalType": "uint256",
          "name": "id",
          "type": "uint256"
        },
        {
          "internalType": "uint256",
          "name": "bet",
          "type": "uint256"
        },
        {
          "internalType": "enum RockPaperScissors.State",
          "name": "state",
          "type": "uint8"
        }
      ],
      "payable": false,
      "stateMutability": "view",
      "type": "function"
    },
    {
      "constant": true,
      "inputs": [
        {
          "internalType": "uint256",
          "name": "",
          "type": "uint256"
        },
        {
          "internalType": "address",
          "name": "",
          "type": "address"
        }
      ],
      "name": "moves",
      "outputs": [
        {
          "internalType": "bytes32",
          "name": "hash",
          "type": "bytes32"
        },
        {
          "internalType": "uint256",
          "name": "value",
          "type": "uint256"
        }
      ],
      "payable": false,
      "stateMutability": "view",
      "type": "function"
    },
    {
      "constant": true,
      "inputs": [
        {
          "internalType": "uint256",
          "name": "",
          "type": "uint256"
        }
      ],
      "name": "winningMoves",
      "outputs": [
        {
          "internalType": "uint256",
          "name": "",
          "type": "uint256"
        }
      ],
      "payable": false,
      "stateMutability": "view",
      "type": "function"
    },
    {
      "constant": true,
      "inputs": [
        {
          "internalType": "uint256",
          "name": "_gameId",
          "type": "uint256"
        }
      ],
      "name": "getGame",
      "outputs": [
        {
          "internalType": "uint256",
          "name": "",
          "type": "uint256"
        },
        {
          "internalType": "uint256",
          "name": "",
          "type": "uint256"
        },
        {
          "internalType": "address[]",
          "name": "",
          "type": "address[]"
        },
        {
          "internalType": "enum RockPaperScissors.State",
          "name": "",
          "type": "uint8"
        }
      ],
      "payable": false,
      "stateMutability": "view",
      "type": "function"
    },
    {
      "constant": false,
      "inputs": [
        {
          "internalType": "address payable",
          "name": "participant",
          "type": "address"
        }
      ],
      "name": "createGame",
      "outputs": [],
      "payable": true,
      "stateMutability": "payable",
      "type": "function"
    },
    {
      "constant": false,
      "inputs": [
        {
          "internalType": "uint256",
          "name": "_gameId",
          "type": "uint256"
        }
      ],
      "name": "joinGame",
      "outputs": [],
      "payable": true,
      "stateMutability": "payable",
      "type": "function"
    },
    {
      "constant": false,
      "inputs": [
        {
          "internalType": "uint256",
          "name": "_gameId",
          "type": "uint256"
        },
        {
          "internalType": "uint256",
          "name": "moveId",
          "type": "uint256"
        },
        {
          "internalType": "uint256",
          "name": "salt",
          "type": "uint256"
        }
      ],
      "name": "commitMove",
      "outputs": [],
      "payable": false,
      "stateMutability": "nonpayable",
      "type": "function"
    },
    {
      "constant": false,
      "inputs": [
        {
          "internalType": "uint256",
          "name": "_gameId",
          "type": "uint256"
        },
        {
          "internalType": "uint256",
          "name": "moveId",
          "type": "uint256"
        },
        {
          "internalType": "uint256",
          "name": "salt",
          "type": "uint256"
        }
      ],
      "name": "revealMove",
      "outputs": [],
      "payable": false,
      "stateMutability": "nonpayable",
      "type": "function"
    }
  ],
  "bytecode": "0x608060405234801561001057600080fd5b5060036002600060018152602001908152602001600020819055506001600260006002815260200190815260200160002081905550600280600060038152602001908152602001600020819055506117248061006d6000396000f3fe6080604052600436106100865760003560e01c8063474d0b5a11610059578063474d0b5a1461020a5780634b4cbb451461024e578063a2f77bcc1461029d578063d7c81b5514610350578063efaa55a01461037b57610086565b8063117a5b901461008b57806322337a88146100f657806334d3ce4b1461016c578063354fe54a146101bb575b600080fd5b34801561009757600080fd5b506100c4600480360360208110156100ae57600080fd5b81019080803590602001909291905050506103a9565b604051808481526020018381526020018260048111156100e057fe5b60ff168152602001935050505060405180910390f35b34801561010257600080fd5b5061014f6004803603604081101561011957600080fd5b8101908080359060200190929190803573ffffffffffffffffffffffffffffffffffffffff1690602001909291905050506103e0565b604051808381526020018281526020019250505060405180910390f35b34801561017857600080fd5b506101b96004803603606081101561018f57600080fd5b81019080803590602001909291908035906020019092919080359060200190929190505050610411565b005b3480156101c757600080fd5b50610208600480360360608110156101de57600080fd5b81019080803590602001909291908035906020019092919080359060200190929190505050610955565b005b61024c6004803603602081101561022057600080fd5b81019080803573ffffffffffffffffffffffffffffffffffffffff169060200190929190505050610fe0565b005b34801561025a57600080fd5b506102876004803603602081101561027157600080fd5b81019080803590602001909291905050506111d1565b6040518082815260200191505060405180910390f35b3480156102a957600080fd5b506102d6600480360360208110156102c057600080fd5b81019080803590602001909291905050506111e9565b60405180858152602001848152602001806020018360048111156102f657fe5b60ff168152602001828103825284818151815260200191508051906020019060200280838360005b8381101561033957808201518184015260208101905061031e565b505050509050019550505050505060405180910390f35b34801561035c57600080fd5b5061036561136c565b6040518082815260200191505060405180910390f35b6103a76004803603602081101561039157600080fd5b8101908080359060200190929190505050611372565b005b60006020528060005260406000206000915090508060000154908060010154908060030160009054906101000a900460ff16905083565b6001602052816000526040600020602052806000526040600020600091509150508060000154908060010154905082565b600080600085815260200190815260200160002090506002600481111561043457fe5b8160030160009054906101000a900460ff16600481111561045157fe5b146104c4576040517f08c379a000000000000000000000000000000000000000000000000000000000815260040180806020018281038252601c8152602001807f67616d65206d75737420626520696e204a4f494e45442073746174650000000081525060200191505060405180910390fd5b806002016000815481106104d457fe5b9060005260206000200160009054906101000a900473ffffffffffffffffffffffffffffffffffffffff1673ffffffffffffffffffffffffffffffffffffffff163373ffffffffffffffffffffffffffffffffffffffff16148061059d57508060020160018154811061054357fe5b9060005260206000200160009054906101000a900473ffffffffffffffffffffffffffffffffffffffff1673ffffffffffffffffffffffffffffffffffffffff163373ffffffffffffffffffffffffffffffffffffffff16145b6105f2576040517f08c379a00000000000000000000000000000000000000000000000000000000081526004018080602001828103825260248152602001806116cc6024913960400191505060405180910390fd5b6000801b6001600086815260200190815260200160002060003373ffffffffffffffffffffffffffffffffffffffff1673ffffffffffffffffffffffffffffffffffffffff16815260200190815260200160002060000154146106bd576040517f08c379a00000000000000000000000000000000000000000000000000000000081526004018080602001828103825260118152602001807f6d6f766520616c7265616479206d61646500000000000000000000000000000081525060200191505060405180910390fd5b60018314806106cc5750600283145b806106d75750600383145b610749576040517f08c379a000000000000000000000000000000000000000000000000000000000815260040180806020018281038252601a8152602001807f6d6f7665206e6565647320746f20626520312c2032206f72203300000000000081525060200191505060405180910390fd5b604051806040016040528084846040516020018083815260200182815260200192505050604051602081830303815290604052805190602001208152602001848152506001600086815260200190815260200160002060003373ffffffffffffffffffffffffffffffffffffffff1673ffffffffffffffffffffffffffffffffffffffff16815260200190815260200160002060008201518160000155602082015181600101559050506000801b6001600086815260200190815260200160002060008360020160008154811061081c57fe5b9060005260206000200160009054906101000a900473ffffffffffffffffffffffffffffffffffffffff1673ffffffffffffffffffffffffffffffffffffffff1673ffffffffffffffffffffffffffffffffffffffff168152602001908152602001600020600001541415801561092357506000801b600160008681526020019081526020016000206000836002016001815481106108b757fe5b9060005260206000200160009054906101000a900473ffffffffffffffffffffffffffffffffffffffff1673ffffffffffffffffffffffffffffffffffffffff1673ffffffffffffffffffffffffffffffffffffffff1681526020019081526020016000206000015414155b1561094f5760038160030160006101000a81548160ff0219169083600481111561094957fe5b02179055505b50505050565b6000806000858152602001908152602001600020905060006001600086815260200190815260200160002060008360020160008154811061099257fe5b9060005260206000200160009054906101000a900473ffffffffffffffffffffffffffffffffffffffff1673ffffffffffffffffffffffffffffffffffffffff1673ffffffffffffffffffffffffffffffffffffffff1681526020019081526020016000209050600060016000878152602001908152602001600020600084600201600181548110610a2057fe5b9060005260206000200160009054906101000a900473ffffffffffffffffffffffffffffffffffffffff1673ffffffffffffffffffffffffffffffffffffffff1673ffffffffffffffffffffffffffffffffffffffff168152602001908152602001600020905060006001600088815260200190815260200160002060003373ffffffffffffffffffffffffffffffffffffffff1673ffffffffffffffffffffffffffffffffffffffff168152602001908152602001600020905060036004811115610ae857fe5b8460030160009054906101000a900460ff166004811115610b0557fe5b14610b78576040517f08c379a000000000000000000000000000000000000000000000000000000000815260040180806020018281038252601e8152602001807f67616d65206d75737420626520696e20434f4d4d49544544207374617465000081525060200191505060405180910390fd5b83600201600081548110610b8857fe5b9060005260206000200160009054906101000a900473ffffffffffffffffffffffffffffffffffffffff1673ffffffffffffffffffffffffffffffffffffffff163373ffffffffffffffffffffffffffffffffffffffff161480610c51575083600201600181548110610bf757fe5b9060005260206000200160009054906101000a900473ffffffffffffffffffffffffffffffffffffffff1673ffffffffffffffffffffffffffffffffffffffff163373ffffffffffffffffffffffffffffffffffffffff16145b610ca6576040517f08c379a00000000000000000000000000000000000000000000000000000000081526004018080602001828103825260248152602001806116cc6024913960400191505060405180910390fd5b8585604051602001808381526020018281526020019250505060405160208183030381529060405280519060200120816000015414610d4d576040517f08c379a00000000000000000000000000000000000000000000000000000000081526004018080602001828103825260208152602001807f6d6f7665496420646f6573206e6f74206d6174636820636f6d6d69746d656e7481525060200191505060405180910390fd5b8581600101819055506000836001015414158015610d7057506000826001015414155b15610fd657816001015483600101541415610ebe5783600201600081548110610d9557fe5b9060005260206000200160009054906101000a900473ffffffffffffffffffffffffffffffffffffffff1673ffffffffffffffffffffffffffffffffffffffff166108fc85600101549081150290604051600060405180830381858888f19350505050158015610e09573d6000803e3d6000fd5b5083600201600181548110610e1a57fe5b9060005260206000200160009054906101000a900473ffffffffffffffffffffffffffffffffffffffff1673ffffffffffffffffffffffffffffffffffffffff166108fc85600101549081150290604051600060405180830381858888f19350505050158015610e8e573d6000803e3d6000fd5b5060048460030160006101000a81548160ff02191690836004811115610eb057fe5b021790555050505050610fdb565b6000826001015460026000866001015481526020019081526020016000205414610f225784600201600181548110610ef257fe5b9060005260206000200160009054906101000a900473ffffffffffffffffffffffffffffffffffffffff16610f5e565b84600201600081548110610f3257fe5b9060005260206000200160009054906101000a900473ffffffffffffffffffffffffffffffffffffffff165b90508073ffffffffffffffffffffffffffffffffffffffff166108fc86600101546002029081150290604051600060405180830381858888f19350505050158015610fad573d6000803e3d6000fd5b5060008560030160006101000a81548160ff02191690836004811115610fcf57fe5b0217905550505b505050505b505050565b60003411611056576040517f08c379a00000000000000000000000000000000000000000000000000000000081526004018080602001828103825260178152602001807f6861766520746f2073656e6420736f6d6520657468657200000000000000000081525060200191505060405180910390fd5b606060026040519080825280602002602001820160405280156110885781602001602082028038833980820191505090505b509050338160008151811061109957fe5b602002602001019073ffffffffffffffffffffffffffffffffffffffff16908173ffffffffffffffffffffffffffffffffffffffff168152505081816001815181106110e157fe5b602002602001019073ffffffffffffffffffffffffffffffffffffffff16908173ffffffffffffffffffffffffffffffffffffffff1681525050604051806080016040528060035481526020013481526020018281526020016001600481111561114757fe5b81525060008060035481526020019081526020016000206000820151816000015560208201518160010155604082015181600201908051906020019061118e9291906115fe565b5060608201518160030160006101000a81548160ff021916908360048111156111b357fe5b02179055509050506003600081548092919060010191905055505050565b60026020528060005260406000206000915090505481565b60008060606000806000808781526020019081526020016000209050606060026040519080825280602002602001820160405280156112375781602001602082028038833980820191505090505b5090508160020160008154811061124a57fe5b9060005260206000200160009054906101000a900473ffffffffffffffffffffffffffffffffffffffff168160008151811061128257fe5b602002602001019073ffffffffffffffffffffffffffffffffffffffff16908173ffffffffffffffffffffffffffffffffffffffff1681525050816002016001815481106112cc57fe5b9060005260206000200160009054906101000a900473ffffffffffffffffffffffffffffffffffffffff168160018151811061130457fe5b602002602001019073ffffffffffffffffffffffffffffffffffffffff16908173ffffffffffffffffffffffffffffffffffffffff168152505081600001548260010154828460030160009054906101000a900460ff16955095509550955050509193509193565b60035481565b600080600083815260200190815260200160002090508060020160018154811061139857fe5b9060005260206000200160009054906101000a900473ffffffffffffffffffffffffffffffffffffffff1673ffffffffffffffffffffffffffffffffffffffff163373ffffffffffffffffffffffffffffffffffffffff1614611463576040517f08c379a000000000000000000000000000000000000000000000000000000000815260040180806020018281038252601c8152602001807f73656e646572206d757374206265207365636f6e6420706c617965720000000081525060200191505060405180910390fd5b80600101543410156114dd576040517f08c379a00000000000000000000000000000000000000000000000000000000081526004018080602001828103825260158152602001807f6e6f7420656e6f7567682065746865722073656e74000000000000000000000081525060200191505060405180910390fd5b600160048111156114ea57fe5b8160030160009054906101000a900460ff16600481111561150757fe5b1461157a576040517f08c379a000000000000000000000000000000000000000000000000000000000815260040180806020018281038252601d8152602001807f67616d65206d75737420626520696e204352454154454420737461746500000081525060200191505060405180910390fd5b80600101543411156115d4573373ffffffffffffffffffffffffffffffffffffffff166108fc826001015434039081150290604051600060405180830381858888f193505050501580156115d2573d6000803e3d6000fd5b505b60028160030160006101000a81548160ff021916908360048111156115f557fe5b02179055505050565b828054828255906000526020600020908101928215611677579160200282015b828111156116765782518260006101000a81548173ffffffffffffffffffffffffffffffffffffffff021916908373ffffffffffffffffffffffffffffffffffffffff1602179055509160200191906001019061161e565b5b5090506116849190611688565b5090565b6116c891905b808211156116c457600081816101000a81549073ffffffffffffffffffffffffffffffffffffffff02191690555060010161168e565b5090565b9056fe63616e206f6e6c792062652063616c6c6564206279206f6e65206f6620706c6179657273a265627a7a723158208c83212e374c7677cdcea7ba281663ba647f2bd17c89443fe9a940f2ee34a6f064736f6c63430005100032",
  "source": "pragma solidity >=0.5.4 <=0.7.0;\n\ncontract RockPaperScissors {\n  enum State {\n    IDLE,\n    CREATED,\n    JOINED,\n    COMMITED,\n    REVEALED\n  }  \n  struct Game {\n    uint id;\n    uint bet;\n    address payable[] players;\n    State state;\n  } \n  struct Move {\n    bytes32 hash;\n    uint value;\n  }\n  mapping(uint => Game) public games;\n  mapping(uint => mapping(address => Move)) public moves;\n  mapping(uint => uint) public winningMoves;\n  uint public gameId;\n  \n  constructor() public {\n    winningMoves[1] = 3;\n    winningMoves[2] = 1;\n    winningMoves[3] = 2;\n  }\n\n  function getGame(uint _gameId) \n    external \n    view \n    returns(uint, uint, address[] memory, State) {\n      Game storage game = games[_gameId];\n      address[] memory players = new address[](2);\n      players[0] = game.players[0];\n      players[1] = game.players[1];\n      return (\n        game.id,\n        game.bet,\n        players,\n        game.state\n      );\n    }\n  \n  function createGame(address payable participant) external payable {\n    require(msg.value > 0, 'have to send some ether');\n    address payable[] memory players = new address payable[](2);\n    players[0] = msg.sender;\n    players[1] = participant;\n\n    games[gameId] = Game(\n      gameId, \n      msg.value,\n      players,\n      State.CREATED\n    );\n    gameId++;\n  }\n  \n  function joinGame(uint _gameId) external payable {\n    Game storage game = games[_gameId];\n    require(msg.sender == game.players[1], 'sender must be second player'); //also throw if game does not exist\n    require(msg.value >= game.bet, 'not enough ether sent');\n    require(game.state == State.CREATED, 'game must be in CREATED state');\n    if(msg.value > game.bet) {\n      msg.sender.transfer(msg.value - game.bet);\n    }\n    game.state = State.JOINED;\n  }\n  \n  function commitMove(uint _gameId, uint moveId, uint salt) external {\n    Game storage game = games[_gameId];\n    require(game.state == State.JOINED, 'game must be in JOINED state');\n    require(msg.sender == game.players[0] || msg.sender == game.players[1], 'can only be called by one of players');\n    require(moves[_gameId][msg.sender].hash == 0, 'move already made'); // if no move yet, it will default to 0\n    require(moveId == 1 || moveId == 2 || moveId == 3, 'move needs to be 1, 2 or 3');\n    moves[_gameId][msg.sender] = Move(\n      keccak256(abi.encodePacked(moveId, salt)), \n      moveId\n    );\n    if(moves[_gameId][game.players[0]].hash != 0 \n      && moves[_gameId][game.players[1]].hash != 0) {\n      game.state = State.COMMITED;    \n    }\n  }\n  \n  function revealMove(uint _gameId, uint moveId, uint salt) external {\n    Game storage game = games[_gameId];\n    Move storage move1 = moves[_gameId][game.players[0]];\n    Move storage move2 = moves[_gameId][game.players[1]];\n    Move storage moveSender = moves[_gameId][msg.sender];\n    require(game.state == State.COMMITED, 'game must be in COMMITED state');\n    require(msg.sender == game.players[0] || msg.sender == game.players[1], 'can only be called by one of players');\n    require(moveSender.hash == keccak256(abi.encodePacked(moveId, salt)), 'moveId does not match commitment');\n    moveSender.value = moveId;\n    if(move1.value != 0 && move2.value != 0) {\n      if(move1.value == move2.value) {\n        game.players[0].transfer(game.bet);\n        game.players[1].transfer(game.bet);\n        game.state = State.REVEALED;\n        return;\n      }\n      address payable winner;\n      winner = winningMoves[move1.value] == move2.value ? game.players[0] : game.players[1];\n      winner.transfer(2* game.bet);\n      game.state = State.IDLE;\n    }  \n  }\n}\n",
  "sourcePath": "/var/www/html/eattheblocks-pro-master/vueDap30/day20_rock_paper_scissors/contracts/RockPaperScissors.sol",
  "compiler": {
    "name": "solc",
    "version": "0.5.16+commit.9c3226ce.Emscripten.clang"
  },
  "schemaVersion": "3.3.3",
  "updatedAt": "2021-02-27T22:19:47.862Z",
  "networkType": "ethereum",
  "devdoc": {
    "methods": {}
  },
  "userdoc": {
    "methods": {}
  }
}